:100000000C9434000C943E000C943E000C943E0082
:100010000C943E000C943E000C943E000C943E0068
:100020000C943E000C943E000C943E000C943E0058
:100030000C943E000C943E000C943E000C943E0048
:100040000C943E000C943E000C943E000C943E0038
:100050000C943E000C943E000C943E000C943E0028
:100060000C943E000C943E0011241FBECFEFD8E04C
:10007000DEBFCDBF0E9440000C94B8000C9400007D
:10008000CF93DF93CDB7DEB767970FB6F894DEBF97
:100090000FBECDBF8AB182688AB95F9A82E0898338
:1000A00083E08A8384E08B8385E08C8325E044E0D1
:1000B000BE016F5F7F4FCE0105960E946200FFCFA9
:1000C0005F9A08950F931F93CF93DF93DC011196EE
:1000D0001C921E9213961C921E92129715961C92B9
:1000E0001E92149717961C921E921697493028F06C
:1000F00088E018968C93189703C018964C9318971D
:1001000019962C93199752961C925297442319F1E1
:100110008D01065F1F4FFB01415050E04F5F5F4F65
:10012000640F751F41E050E0CF012191E801299350
:100130008E019A01EC01088002C0220F331F0A943D
:10014000E2F752968C915297282B52962C93529705
:10015000E617F70749F7EAE7F0E0808187688083D0
:10016000CD010E946000DF91CF911F910F91089502
:04017000F894FFCF31
:00000001FF
