S01100005370656564737465722E7372656364
S11300000C9434000C9446000C9446000C94460066
S11300100C9446000C9446000C9446000C94460044
S11300200C9446000C9476000C9446000C94460004
S11300300C9446000C9446000C9446000C94460024
S11300400C9446000C9446000C9446000C94460014
S11300500C9446000C9446000C9446000C94460004
S11300600C9446000C94460011241FBECFEFD8E038
S1130070DEBFCDBF21E0A0E0B1E001C01D92AA30F7
S1130080B207E1F70E9448000C94A7010C94000009
S1130090CF93DF93CDB7DEB769970FB6F894DEBF81
S11300A00FBECDBF519A5F98198281E08A8325E003
S11300B042E0BE016F5F7F4FCE0103960E94C700EE
S11300C01F8A1E8A198E188EBE016A5E7F4FCE016A
S11300D003960E941D01599A8E899F890E94B0003F
S11300E05998888D998D0E94B000EACF2F928F93F2
S11300F09F932FB6809107019091080101968093F8
S113010007019093080190E080910901891F809371
S11301100901909101019C5F90930101809100017C
S113012080519742C0F09093010180930001809127
S113013002019091030101968093020190930301BF
S113014090E080910401891F80930401809105014E
S1130150891F809305012FBE9F918F912F90189531
S11301609C0121503109892B69F048EE53E0CA0102
S11301706F9364E06A95F1F76F910197C9F7215085
S11301803109A8F708955F9808955F9A08950F9329
S11301901F93CF93DF93DC0111961C921E9213964A
S11301A01C921E92129715961C921E9214971796E3
S11301B01C921E921697493028F088E018968C936A
S11301C0189703C018964C93189719962C9319975F
S11301D052961C925297442319F18D01065F1F4FCA
S11301E0FB01415050E04F5F5F4F640F751F41E0CA
S11301F050E0CF012191E80129938E019A01EC018D
S1130200088002C0220F331F0A94E2F752968C91A1
S11302105297282B52962C935297E617F70749F7D3
S1130220EAE7F0E0808187688083CD010E94C50001
S1130230DF91CF911F910F9108959F92AF92BF923A
S1130240CF92DF92EF92FF920F931F93CF93DF939E
S1130250EC018B010E94C30090907C00A0907A0076
S1130260CAB0BBB0EAE7F0E0808186FDFDCF8885A7
S1130270882369F080E0E82FF0E0EE0FFF1FE00F25
S1130280F11F118210828F5F98858917A0F327B11F
S113029081E090E0AC010A8802C0440F551F0A9423
S11302A0E2F74095242327B928B10A8802C0880FB1
S11302B0991F0A94E2F78095822388B98985882357
S11302C089F1D12C6CE770E0EAE7F0E048E750E010
S11302D08885882319F190E0DE01A90FB11D1A96D3
S11302E08C918064DB018C93808180648083808125
S11302F086FDFDCFDA01ED90FC90A92FB0E0AA0FA6
S1130300BB1FA00FB11F2D913C9111972E0D3F1DC6
S11303102D933C939F5F88859817F0F2D394898539
S1130320D816B0F290927C00A0927A00BBB8CAB8FA
S1130330CE010E94C500DF91CF911F910F91FF90D4
S1130340EF90DF90CF90BF90AF909F900895F89476
S1050350FFCFD9
S9030000FC
